{
  "address": "0x84099FCf7e126EBD661a487796947844F40f0b78",
  "_format": "hh-sol-artifact-1",
  "contractName": "CeloPoap",
  "sourceName": "contracts/CeloPoap.sol",
  "abi": [
    {
      "inputs": [
        {
          "internalType": "string",
          "name": "tokenName",
          "type": "string"
        },
        {
          "internalType": "string",
          "name": "tokenSymbol",
          "type": "string"
        }
      ],
      "stateMutability": "nonpayable",
      "type": "constructor"
    },
    {
      "anonymous": false,
      "inputs": [
        {
          "indexed": true,
          "internalType": "address",
          "name": "owner",
          "type": "address"
        },
        {
          "indexed": true,
          "internalType": "address",
          "name": "approved",
          "type": "address"
        },
        {
          "indexed": true,
          "internalType": "uint256",
          "name": "tokenId",
          "type": "uint256"
        }
      ],
      "name": "Approval",
      "type": "event"
    },
    {
      "anonymous": false,
      "inputs": [
        {
          "indexed": true,
          "internalType": "address",
          "name": "owner",
          "type": "address"
        },
        {
          "indexed": true,
          "internalType": "address",
          "name": "operator",
          "type": "address"
        },
        {
          "indexed": false,
          "internalType": "bool",
          "name": "approved",
          "type": "bool"
        }
      ],
      "name": "ApprovalForAll",
      "type": "event"
    },
    {
      "anonymous": false,
      "inputs": [
        {
          "indexed": true,
          "internalType": "address",
          "name": "owner",
          "type": "address"
        },
        {
          "indexed": true,
          "internalType": "uint256",
          "name": "collectionIndex",
          "type": "uint256"
        },
        {
          "indexed": false,
          "internalType": "uint256",
          "name": "_maxMint",
          "type": "uint256"
        },
        {
          "indexed": false,
          "internalType": "uint256",
          "name": "_secondsToExpire",
          "type": "uint256"
        },
        {
          "indexed": false,
          "internalType": "string",
          "name": "_uri",
          "type": "string"
        }
      ],
      "name": "TokenCreated",
      "type": "event"
    },
    {
      "anonymous": false,
      "inputs": [
        {
          "indexed": true,
          "internalType": "uint256",
          "name": "tokenId",
          "type": "uint256"
        },
        {
          "indexed": true,
          "internalType": "uint256",
          "name": "collectionIndex",
          "type": "uint256"
        },
        {
          "indexed": true,
          "internalType": "address",
          "name": "_address",
          "type": "address"
        }
      ],
      "name": "TokenMinted",
      "type": "event"
    },
    {
      "anonymous": false,
      "inputs": [
        {
          "indexed": true,
          "internalType": "address",
          "name": "from",
          "type": "address"
        },
        {
          "indexed": true,
          "internalType": "address",
          "name": "to",
          "type": "address"
        },
        {
          "indexed": true,
          "internalType": "uint256",
          "name": "tokenId",
          "type": "uint256"
        }
      ],
      "name": "Transfer",
      "type": "event"
    },
    {
      "inputs": [
        {
          "internalType": "address",
          "name": "to",
          "type": "address"
        },
        {
          "internalType": "uint256",
          "name": "tokenId",
          "type": "uint256"
        }
      ],
      "name": "approve",
      "outputs": [],
      "stateMutability": "nonpayable",
      "type": "function"
    },
    {
      "inputs": [
        {
          "internalType": "address",
          "name": "owner",
          "type": "address"
        }
      ],
      "name": "balanceOf",
      "outputs": [
        {
          "internalType": "uint256",
          "name": "",
          "type": "uint256"
        }
      ],
      "stateMutability": "view",
      "type": "function"
    },
    {
      "inputs": [
        {
          "internalType": "uint256",
          "name": "collectionIndex",
          "type": "uint256"
        },
        {
          "internalType": "bytes32",
          "name": "code",
          "type": "bytes32"
        }
      ],
      "name": "claimToken",
      "outputs": [],
      "stateMutability": "nonpayable",
      "type": "function"
    },
    {
      "inputs": [
        {
          "internalType": "bytes32",
          "name": "code",
          "type": "bytes32"
        }
      ],
      "name": "claimTokenByCode",
      "outputs": [],
      "stateMutability": "nonpayable",
      "type": "function"
    },
    {
      "inputs": [
        {
          "internalType": "uint256",
          "name": "",
          "type": "uint256"
        }
      ],
      "name": "codeOfCollection",
      "outputs": [
        {
          "internalType": "bytes32",
          "name": "",
          "type": "bytes32"
        }
      ],
      "stateMutability": "view",
      "type": "function"
    },
    {
      "inputs": [
        {
          "internalType": "uint256",
          "name": "collectionIndex",
          "type": "uint256"
        }
      ],
      "name": "collectionInfo",
      "outputs": [
        {
          "internalType": "string",
          "name": "",
          "type": "string"
        },
        {
          "internalType": "uint256",
          "name": "",
          "type": "uint256"
        },
        {
          "internalType": "uint256",
          "name": "",
          "type": "uint256"
        },
        {
          "internalType": "uint256",
          "name": "",
          "type": "uint256"
        }
      ],
      "stateMutability": "view",
      "type": "function"
    },
    {
      "inputs": [
        {
          "internalType": "bytes32",
          "name": "",
          "type": "bytes32"
        }
      ],
      "name": "collectionOfCode",
      "outputs": [
        {
          "internalType": "uint256",
          "name": "",
          "type": "uint256"
        }
      ],
      "stateMutability": "view",
      "type": "function"
    },
    {
      "inputs": [
        {
          "internalType": "uint256",
          "name": "",
          "type": "uint256"
        }
      ],
      "name": "collections",
      "outputs": [
        {
          "internalType": "string",
          "name": "",
          "type": "string"
        }
      ],
      "stateMutability": "view",
      "type": "function"
    },
    {
      "inputs": [
        {
          "internalType": "address",
          "name": "",
          "type": "address"
        }
      ],
      "name": "collectionsOf",
      "outputs": [
        {
          "internalType": "uint256",
          "name": "",
          "type": "uint256"
        }
      ],
      "stateMutability": "view",
      "type": "function"
    },
    {
      "inputs": [
        {
          "internalType": "uint256",
          "name": "_maxMint",
          "type": "uint256"
        },
        {
          "internalType": "uint256",
          "name": "_secondsToExpire",
          "type": "uint256"
        },
        {
          "internalType": "bytes32",
          "name": "code",
          "type": "bytes32"
        },
        {
          "internalType": "string",
          "name": "_uri",
          "type": "string"
        }
      ],
      "name": "createToken",
      "outputs": [],
      "stateMutability": "nonpayable",
      "type": "function"
    },
    {
      "inputs": [
        {
          "internalType": "address",
          "name": "_address",
          "type": "address"
        },
        {
          "internalType": "uint256",
          "name": "collectionIndex",
          "type": "uint256"
        }
      ],
      "name": "createdCollection",
      "outputs": [
        {
          "internalType": "string",
          "name": "",
          "type": "string"
        },
        {
          "internalType": "uint256",
          "name": "",
          "type": "uint256"
        },
        {
          "internalType": "uint256",
          "name": "",
          "type": "uint256"
        },
        {
          "internalType": "uint256",
          "name": "",
          "type": "uint256"
        }
      ],
      "stateMutability": "view",
      "type": "function"
    },
    {
      "inputs": [
        {
          "internalType": "uint256",
          "name": "",
          "type": "uint256"
        }
      ],
      "name": "expireTime",
      "outputs": [
        {
          "internalType": "uint256",
          "name": "",
          "type": "uint256"
        }
      ],
      "stateMutability": "view",
      "type": "function"
    },
    {
      "inputs": [
        {
          "internalType": "uint256",
          "name": "tokenId",
          "type": "uint256"
        }
      ],
      "name": "getApproved",
      "outputs": [
        {
          "internalType": "address",
          "name": "",
          "type": "address"
        }
      ],
      "stateMutability": "view",
      "type": "function"
    },
    {
      "inputs": [
        {
          "internalType": "address",
          "name": "owner",
          "type": "address"
        },
        {
          "internalType": "address",
          "name": "operator",
          "type": "address"
        }
      ],
      "name": "isApprovedForAll",
      "outputs": [
        {
          "internalType": "bool",
          "name": "",
          "type": "bool"
        }
      ],
      "stateMutability": "view",
      "type": "function"
    },
    {
      "inputs": [
        {
          "internalType": "uint256",
          "name": "",
          "type": "uint256"
        }
      ],
      "name": "maxMint",
      "outputs": [
        {
          "internalType": "uint256",
          "name": "",
          "type": "uint256"
        }
      ],
      "stateMutability": "view",
      "type": "function"
    },
    {
      "inputs": [
        {
          "internalType": "uint256",
          "name": "",
          "type": "uint256"
        }
      ],
      "name": "minted",
      "outputs": [
        {
          "internalType": "uint256",
          "name": "",
          "type": "uint256"
        }
      ],
      "stateMutability": "view",
      "type": "function"
    },
    {
      "inputs": [],
      "name": "name",
      "outputs": [
        {
          "internalType": "string",
          "name": "",
          "type": "string"
        }
      ],
      "stateMutability": "view",
      "type": "function"
    },
    {
      "inputs": [
        {
          "internalType": "uint256",
          "name": "tokenId",
          "type": "uint256"
        }
      ],
      "name": "ownerOf",
      "outputs": [
        {
          "internalType": "address",
          "name": "",
          "type": "address"
        }
      ],
      "stateMutability": "view",
      "type": "function"
    },
    {
      "inputs": [
        {
          "internalType": "address",
          "name": "",
          "type": "address"
        },
        {
          "internalType": "uint256",
          "name": "",
          "type": "uint256"
        }
      ],
      "name": "ownerOfcollection",
      "outputs": [
        {
          "internalType": "uint256",
          "name": "",
          "type": "uint256"
        }
      ],
      "stateMutability": "view",
      "type": "function"
    },
    {
      "inputs": [
        {
          "internalType": "address",
          "name": "from",
          "type": "address"
        },
        {
          "internalType": "address",
          "name": "to",
          "type": "address"
        },
        {
          "internalType": "uint256",
          "name": "tokenId",
          "type": "uint256"
        }
      ],
      "name": "safeTransferFrom",
      "outputs": [],
      "stateMutability": "nonpayable",
      "type": "function"
    },
    {
      "inputs": [
        {
          "internalType": "address",
          "name": "from",
          "type": "address"
        },
        {
          "internalType": "address",
          "name": "to",
          "type": "address"
        },
        {
          "internalType": "uint256",
          "name": "tokenId",
          "type": "uint256"
        },
        {
          "internalType": "bytes",
          "name": "data",
          "type": "bytes"
        }
      ],
      "name": "safeTransferFrom",
      "outputs": [],
      "stateMutability": "nonpayable",
      "type": "function"
    },
    {
      "inputs": [
        {
          "internalType": "address",
          "name": "operator",
          "type": "address"
        },
        {
          "internalType": "bool",
          "name": "approved",
          "type": "bool"
        }
      ],
      "name": "setApprovalForAll",
      "outputs": [],
      "stateMutability": "nonpayable",
      "type": "function"
    },
    {
      "inputs": [
        {
          "internalType": "bytes4",
          "name": "interfaceId",
          "type": "bytes4"
        }
      ],
      "name": "supportsInterface",
      "outputs": [
        {
          "internalType": "bool",
          "name": "",
          "type": "bool"
        }
      ],
      "stateMutability": "view",
      "type": "function"
    },
    {
      "inputs": [],
      "name": "symbol",
      "outputs": [
        {
          "internalType": "string",
          "name": "",
          "type": "string"
        }
      ],
      "stateMutability": "view",
      "type": "function"
    },
    {
      "inputs": [
        {
          "internalType": "uint256",
          "name": "index",
          "type": "uint256"
        }
      ],
      "name": "tokenByIndex",
      "outputs": [
        {
          "internalType": "uint256",
          "name": "",
          "type": "uint256"
        }
      ],
      "stateMutability": "view",
      "type": "function"
    },
    {
      "inputs": [
        {
          "internalType": "address",
          "name": "owner",
          "type": "address"
        },
        {
          "internalType": "uint256",
          "name": "index",
          "type": "uint256"
        }
      ],
      "name": "tokenOfOwnerByIndex",
      "outputs": [
        {
          "internalType": "uint256",
          "name": "",
          "type": "uint256"
        }
      ],
      "stateMutability": "view",
      "type": "function"
    },
    {
      "inputs": [
        {
          "internalType": "uint256",
          "name": "tokenId",
          "type": "uint256"
        }
      ],
      "name": "tokenURI",
      "outputs": [
        {
          "internalType": "string",
          "name": "",
          "type": "string"
        }
      ],
      "stateMutability": "view",
      "type": "function"
    },
    {
      "inputs": [],
      "name": "totalSupply",
      "outputs": [
        {
          "internalType": "uint256",
          "name": "",
          "type": "uint256"
        }
      ],
      "stateMutability": "view",
      "type": "function"
    },
    {
      "inputs": [
        {
          "internalType": "address",
          "name": "from",
          "type": "address"
        },
        {
          "internalType": "address",
          "name": "to",
          "type": "address"
        },
        {
          "internalType": "uint256",
          "name": "tokenId",
          "type": "uint256"
        }
      ],
      "name": "transferFrom",
      "outputs": [],
      "stateMutability": "nonpayable",
      "type": "function"
    }
  ],
  "bytecode": "0x60806040523480156200001157600080fd5b5060405162004c9d38038062004c9d8339818101604052810190620000379190620001fa565b818181600090816200004a9190620004ca565b5080600190816200005c9190620004ca565b5050505050620005b1565b6000604051905090565b600080fd5b600080fd5b600080fd5b600080fd5b6000601f19601f8301169050919050565b7f4e487b7100000000000000000000000000000000000000000000000000000000600052604160045260246000fd5b620000d08262000085565b810181811067ffffffffffffffff82111715620000f257620000f162000096565b5b80604052505050565b60006200010762000067565b9050620001158282620000c5565b919050565b600067ffffffffffffffff82111562000138576200013762000096565b5b620001438262000085565b9050602081019050919050565b60005b838110156200017057808201518184015260208101905062000153565b60008484015250505050565b6000620001936200018d846200011a565b620000fb565b905082815260208101848484011115620001b257620001b162000080565b5b620001bf84828562000150565b509392505050565b600082601f830112620001df57620001de6200007b565b5b8151620001f18482602086016200017c565b91505092915050565b6000806040838503121562000214576200021362000071565b5b600083015167ffffffffffffffff81111562000235576200023462000076565b5b6200024385828601620001c7565b925050602083015167ffffffffffffffff81111562000267576200026662000076565b5b6200027585828601620001c7565b9150509250929050565b600081519050919050565b7f4e487b7100000000000000000000000000000000000000000000000000000000600052602260045260246000fd5b60006002820490506001821680620002d257607f821691505b602082108103620002e857620002e76200028a565b5b50919050565b60008190508160005260206000209050919050565b60006020601f8301049050919050565b600082821b905092915050565b600060088302620003527fffffffffffffffffffffffffffffffffffffffffffffffffffffffffffffffff8262000313565b6200035e868362000313565b95508019841693508086168417925050509392505050565b6000819050919050565b6000819050919050565b6000620003ab620003a56200039f8462000376565b62000380565b62000376565b9050919050565b6000819050919050565b620003c7836200038a565b620003df620003d682620003b2565b84845462000320565b825550505050565b600090565b620003f6620003e7565b62000403818484620003bc565b505050565b5b818110156200042b576200041f600082620003ec565b60018101905062000409565b5050565b601f8211156200047a576200044481620002ee565b6200044f8462000303565b810160208510156200045f578190505b620004776200046e8562000303565b83018262000408565b50505b505050565b600082821c905092915050565b60006200049f600019846008026200047f565b1980831691505092915050565b6000620004ba83836200048c565b9150826002028217905092915050565b620004d5826200027f565b67ffffffffffffffff811115620004f157620004f062000096565b5b620004fd8254620002b9565b6200050a8282856200042f565b600060209050601f8311600181146200054257600084156200052d578287015190505b620005398582620004ac565b865550620005a9565b601f1984166200055286620002ee565b60005b828110156200057c5784890151825560018201915060208501945060208101905062000555565b868310156200059c578489015162000598601f8916826200048c565b8355505b6001600288020188555050505b505050505050565b6146dc80620005c16000396000f3fe608060405234801561001057600080fd5b50600436106101cf5760003560e01c806370a0823111610104578063a22cb465116100a2578063c87b56dd11610071578063c87b56dd146105b4578063e985e9c5146105e4578063fbf7ad2714610614578063fdbda0ec14610644576101cf565b8063a22cb46514610544578063a2df1da114610560578063b88d4fde1461057c578063c6c522b614610598576101cf565b80637b9a0f71116100de5780637b9a0f71146104935780637dc0bf3f146104c657806386ea493c146104f657806395d89b4114610526576101cf565b806370a08231146104035780637434b3301461043357806378d1bc9d14610463576101cf565b806323b872dd116101715780633d9e67ec1161014b5780633d9e67ec1461035757806342842e0e146103875780634f6ccce7146103a35780636352211e146103d3576101cf565b806323b872dd146102ef5780632f745c591461030b578063331b44661461033b576101cf565b8063095ea7b3116101ad578063095ea7b3146102525780630fb4d2e51461026e57806311ae6e4d146102a157806318160ddd146102d1576101cf565b806301ffc9a7146101d457806306fdde0314610204578063081812fc14610222575b600080fd5b6101ee60048036038101906101e99190612edc565b610674565b6040516101fb9190612f24565b60405180910390f35b61020c610686565b6040516102199190612fcf565b60405180910390f35b61023c60048036038101906102379190613027565b610718565b6040516102499190613095565b60405180910390f35b61026c600480360381019061026791906130dc565b61075e565b005b61028860048036038101906102839190613027565b610875565b604051610298949392919061312b565b60405180910390f35b6102bb60048036038101906102b69190613027565b61099f565b6040516102c89190613190565b60405180910390f35b6102d96109b7565b6040516102e691906131ab565b60405180910390f35b610309600480360381019061030491906131c6565b6109c4565b005b610325600480360381019061032091906130dc565b610a24565b60405161033291906131ab565b60405180910390f35b61035560048036038101906103509190613245565b610ac9565b005b610371600480360381019061036c9190613027565b610e60565b60405161037e91906131ab565b60405180910390f35b6103a1600480360381019061039c91906131c6565b610e78565b005b6103bd60048036038101906103b89190613027565b610e98565b6040516103ca91906131ab565b60405180910390f35b6103ed60048036038101906103e89190613027565b610f09565b6040516103fa9190613095565b60405180910390f35b61041d60048036038101906104189190613272565b610fba565b60405161042a91906131ab565b60405180910390f35b61044d60048036038101906104489190613272565b611071565b60405161045a91906131ab565b60405180910390f35b61047d60048036038101906104789190613245565b611089565b60405161048a91906131ab565b60405180910390f35b6104ad60048036038101906104a891906130dc565b6110a1565b6040516104bd949392919061312b565b60405180910390f35b6104e060048036038101906104db9190613027565b611259565b6040516104ed91906131ab565b60405180910390f35b610510600480360381019061050b9190613027565b611271565b60405161051d91906131ab565b60405180910390f35b61052e611289565b60405161053b9190612fcf565b60405180910390f35b61055e600480360381019061055991906132cb565b61131b565b005b61057a6004803603810190610575919061330b565b611331565b005b61059660048036038101906105919190613480565b611709565b005b6105b260048036038101906105ad91906135a4565b61176b565b005b6105ce60048036038101906105c99190613027565b611954565b6040516105db9190612fcf565b60405180910390f35b6105fe60048036038101906105f99190613627565b611966565b60405161060b9190612f24565b60405180910390f35b61062e600480360381019061062991906130dc565b6119fa565b60405161063b91906131ab565b60405180910390f35b61065e60048036038101906106599190613027565b611a1f565b60405161066b9190612fcf565b60405180910390f35b600061067f82611abf565b9050919050565b60606000805461069590613696565b80601f01602080910402602001604051908101604052809291908181526020018280546106c190613696565b801561070e5780601f106106e35761010080835404028352916020019161070e565b820191906000526020600020905b8154815290600101906020018083116106f157829003601f168201915b5050505050905090565b600061072382611b39565b6004600083815260200190815260200160002060009054906101000a900473ffffffffffffffffffffffffffffffffffffffff169050919050565b600061076982610f09565b90508073ffffffffffffffffffffffffffffffffffffffff168373ffffffffffffffffffffffffffffffffffffffff16036107d9576040517f08c379a00000000000000000000000000000000000000000000000000000000081526004016107d090613739565b60405180910390fd5b8073ffffffffffffffffffffffffffffffffffffffff166107f8611b84565b73ffffffffffffffffffffffffffffffffffffffff161480610827575061082681610821611b84565b611966565b5b610866576040517f08c379a000000000000000000000000000000000000000000000000000000000815260040161085d906137cb565b60405180910390fd5b6108708383611b8c565b505050565b60606000806000610886600c611c45565b8511156108c8576040517f08c379a00000000000000000000000000000000000000000000000000000000081526004016108bf90613837565b60405180910390fd5b6013600086815260200190815260200160002085600f600088815260200190815260200160002054601060008981526020019081526020016000205483805461091090613696565b80601f016020809104026020016040519081016040528092919081815260200182805461093c90613696565b80156109895780601f1061095e57610100808354040283529160200191610989565b820191906000526020600020905b81548152906001019060200180831161096c57829003601f168201915b5050505050935093509350935093509193509193565b600d6020528060005260406000206000915090505481565b6000600880549050905090565b6109d56109cf611b84565b82611c53565b610a14576040517f08c379a0000000000000000000000000000000000000000000000000000000008152600401610a0b906138c9565b60405180910390fd5b610a1f838383611ce8565b505050565b6000610a2f83610fba565b8210610a70576040517f08c379a0000000000000000000000000000000000000000000000000000000008152600401610a679061395b565b60405180910390fd5b600660008473ffffffffffffffffffffffffffffffffffffffff1673ffffffffffffffffffffffffffffffffffffffff168152602001908152602001600020600083815260200190815260200160002054905092915050565b806000600e600083815260200190815260200160002054905060008111610b25576040517f08c379a0000000000000000000000000000000000000000000000000000000008152600401610b1c906139c7565b60405180910390fd5b42601260008381526020019081526020016000205411610b7a576040517f08c379a0000000000000000000000000000000000000000000000000000000008152600401610b7190613a33565b60405180910390fd5b826000600e60008381526020019081526020016000205490506010600082815260200190815260200160002054600f60008381526020019081526020016000205411610bfb576040517f08c379a0000000000000000000000000000000000000000000000000000000008152600401610bf290613a9f565b60405180910390fd5b6000600e6000878152602001908152602001600020549050601160003373ffffffffffffffffffffffffffffffffffffffff1673ffffffffffffffffffffffffffffffffffffffff168152602001908152602001600020600082815260200190815260200160002060009054906101000a900460ff1615610cb1576040517f08c379a0000000000000000000000000000000000000000000000000000000008152600401610ca890613b31565b60405180910390fd5b610cbb600b611f4e565b6000610cc7600b611c45565b90506000601360008481526020019081526020016000208054610ce990613696565b80601f0160208091040260200160405190810160405280929190818152602001828054610d1590613696565b8015610d625780601f10610d3757610100808354040283529160200191610d62565b820191906000526020600020905b815481529060010190602001808311610d4557829003601f168201915b505050505090506001601060008581526020019081526020016000206000828254610d8d9190613b80565b925050819055506001601160003373ffffffffffffffffffffffffffffffffffffffff1673ffffffffffffffffffffffffffffffffffffffff168152602001908152602001600020600085815260200190815260200160002060006101000a81548160ff021916908315150217905550610e073383611f64565b610e118282611f82565b3373ffffffffffffffffffffffffffffffffffffffff1683837ff371d67483809edbc84279729528d26a3e37ce67f1e3a911778dbf88ff927ca260405160405180910390a45050505050505050565b600f6020528060005260406000206000915090505481565b610e9383838360405180602001604052806000815250611709565b505050565b6000610ea26109b7565b8210610ee3576040517f08c379a0000000000000000000000000000000000000000000000000000000008152600401610eda90613c26565b60405180910390fd5b60088281548110610ef757610ef6613c46565b5b90600052602060002001549050919050565b6000806002600084815260200190815260200160002060009054906101000a900473ffffffffffffffffffffffffffffffffffffffff169050600073ffffffffffffffffffffffffffffffffffffffff168173ffffffffffffffffffffffffffffffffffffffff1603610fb1576040517f08c379a0000000000000000000000000000000000000000000000000000000008152600401610fa890613cc1565b60405180910390fd5b80915050919050565b60008073ffffffffffffffffffffffffffffffffffffffff168273ffffffffffffffffffffffffffffffffffffffff160361102a576040517f08c379a000000000000000000000000000000000000000000000000000000000815260040161102190613d53565b60405180910390fd5b600360008373ffffffffffffffffffffffffffffffffffffffff1673ffffffffffffffffffffffffffffffffffffffff168152602001908152602001600020549050919050565b60156020528060005260406000206000915090505481565b600e6020528060005260406000206000915090505481565b60606000806000601560008773ffffffffffffffffffffffffffffffffffffffff1673ffffffffffffffffffffffffffffffffffffffff1681526020019081526020016000205485111561112a576040517f08c379a000000000000000000000000000000000000000000000000000000000815260040161112190613837565b60405180910390fd5b6000601460008873ffffffffffffffffffffffffffffffffffffffff1673ffffffffffffffffffffffffffffffffffffffff16815260200190815260200160002060008781526020019081526020016000205490506013600082815260200190815260200160002081600f60008481526020019081526020016000205460106000858152602001908152602001600020548380546111c790613696565b80601f01602080910402602001604051908101604052809291908181526020018280546111f390613696565b80156112405780601f1061121557610100808354040283529160200191611240565b820191906000526020600020905b81548152906001019060200180831161122357829003601f168201915b5050505050935094509450945094505092959194509250565b60106020528060005260406000206000915090505481565b60126020528060005260406000206000915090505481565b60606001805461129890613696565b80601f01602080910402602001604051908101604052809291908181526020018280546112c490613696565b80156113115780601f106112e657610100808354040283529160200191611311565b820191906000526020600020905b8154815290600101906020018083116112f457829003601f168201915b5050505050905090565b61132d611326611b84565b8383611fef565b5050565b806000600e60008381526020019081526020016000205490506000811161138d576040517f08c379a0000000000000000000000000000000000000000000000000000000008152600401611384906139c7565b60405180910390fd5b426012600083815260200190815260200160002054116113e2576040517f08c379a00000000000000000000000000000000000000000000000000000000081526004016113d990613a33565b60405180910390fd5b826000600e60008381526020019081526020016000205490506010600082815260200190815260200160002054600f60008381526020019081526020016000205411611463576040517f08c379a000000000000000000000000000000000000000000000000000000000815260040161145a90613a9f565b60405180910390fd5b6000861415801561147d5750611479600c611c45565b8611155b6114bc576040517f08c379a00000000000000000000000000000000000000000000000000000000081526004016114b390613dbf565b60405180910390fd5b601160003373ffffffffffffffffffffffffffffffffffffffff1673ffffffffffffffffffffffffffffffffffffffff168152602001908152602001600020600087815260200190815260200160002060009054906101000a900460ff161561155a576040517f08c379a000000000000000000000000000000000000000000000000000000000815260040161155190613b31565b60405180910390fd5b6000611566600b611c45565b9050611572600b611f4e565b600060136000898152602001908152602001600020805461159290613696565b80601f01602080910402602001604051908101604052809291908181526020018280546115be90613696565b801561160b5780601f106115e05761010080835404028352916020019161160b565b820191906000526020600020905b8154815290600101906020018083116115ee57829003601f168201915b505050505090506001601060008a815260200190815260200160002060008282546116369190613b80565b925050819055506001601160003373ffffffffffffffffffffffffffffffffffffffff1673ffffffffffffffffffffffffffffffffffffffff16815260200190815260200160002060008a815260200190815260200160002060006101000a81548160ff0219169083151502179055506116b03383611f64565b6116ba8282611f82565b3373ffffffffffffffffffffffffffffffffffffffff1688837ff371d67483809edbc84279729528d26a3e37ce67f1e3a911778dbf88ff927ca260405160405180910390a45050505050505050565b61171a611714611b84565b83611c53565b611759576040517f08c379a0000000000000000000000000000000000000000000000000000000008152600401611750906138c9565b60405180910390fd5b6117658484848461215b565b50505050565b611775600c611f4e565b6000611781600c611c45565b905082600d60008381526020019081526020016000208190555080600e60008581526020019081526020016000208190555084600f60008381526020019081526020016000208190555083426117d79190613b80565b60126000838152602001908152602001600020819055508160136000838152602001908152602001600020908161180e9190613f8b565b5080601460003373ffffffffffffffffffffffffffffffffffffffff1673ffffffffffffffffffffffffffffffffffffffff1681526020019081526020016000206000601560003373ffffffffffffffffffffffffffffffffffffffff1673ffffffffffffffffffffffffffffffffffffffff168152602001908152602001600020548152602001908152602001600020819055506001601560003373ffffffffffffffffffffffffffffffffffffffff1673ffffffffffffffffffffffffffffffffffffffff16815260200190815260200160002060008282546118f39190613b80565b92505081905550803373ffffffffffffffffffffffffffffffffffffffff167f2e60d6b56715180148f0539f14d18fad554f7117470a05a2bea224a9df267faf8787866040516119459392919061405d565b60405180910390a35050505050565b606061195f826121b7565b9050919050565b6000600560008473ffffffffffffffffffffffffffffffffffffffff1673ffffffffffffffffffffffffffffffffffffffff16815260200190815260200160002060008373ffffffffffffffffffffffffffffffffffffffff1673ffffffffffffffffffffffffffffffffffffffff16815260200190815260200160002060009054906101000a900460ff16905092915050565b6014602052816000526040600020602052806000526040600020600091509150505481565b60136020528060005260406000206000915090508054611a3e90613696565b80601f0160208091040260200160405190810160405280929190818152602001828054611a6a90613696565b8015611ab75780601f10611a8c57610100808354040283529160200191611ab7565b820191906000526020600020905b815481529060010190602001808311611a9a57829003601f168201915b505050505081565b60007f780e9d63000000000000000000000000000000000000000000000000000000007bffffffffffffffffffffffffffffffffffffffffffffffffffffffff1916827bffffffffffffffffffffffffffffffffffffffffffffffffffffffff19161480611b325750611b31826122c9565b5b9050919050565b611b42816123ab565b611b81576040517f08c379a0000000000000000000000000000000000000000000000000000000008152600401611b7890613cc1565b60405180910390fd5b50565b600033905090565b816004600083815260200190815260200160002060006101000a81548173ffffffffffffffffffffffffffffffffffffffff021916908373ffffffffffffffffffffffffffffffffffffffff160217905550808273ffffffffffffffffffffffffffffffffffffffff16611bff83610f09565b73ffffffffffffffffffffffffffffffffffffffff167f8c5be1e5ebec7d5bd14f71427d1e84f3dd0314c0f7b2291e5b200ac8c7c3b92560405160405180910390a45050565b600081600001549050919050565b600080611c5f83610f09565b90508073ffffffffffffffffffffffffffffffffffffffff168473ffffffffffffffffffffffffffffffffffffffff161480611ca15750611ca08185611966565b5b80611cdf57508373ffffffffffffffffffffffffffffffffffffffff16611cc784610718565b73ffffffffffffffffffffffffffffffffffffffff16145b91505092915050565b8273ffffffffffffffffffffffffffffffffffffffff16611d0882610f09565b73ffffffffffffffffffffffffffffffffffffffff1614611d5e576040517f08c379a0000000000000000000000000000000000000000000000000000000008152600401611d559061410d565b60405180910390fd5b600073ffffffffffffffffffffffffffffffffffffffff168273ffffffffffffffffffffffffffffffffffffffff1603611dcd576040517f08c379a0000000000000000000000000000000000000000000000000000000008152600401611dc49061419f565b60405180910390fd5b611dd8838383612417565b611de3600082611b8c565b6001600360008573ffffffffffffffffffffffffffffffffffffffff1673ffffffffffffffffffffffffffffffffffffffff1681526020019081526020016000206000828254611e3391906141bf565b925050819055506001600360008473ffffffffffffffffffffffffffffffffffffffff1673ffffffffffffffffffffffffffffffffffffffff1681526020019081526020016000206000828254611e8a9190613b80565b92505081905550816002600083815260200190815260200160002060006101000a81548173ffffffffffffffffffffffffffffffffffffffff021916908373ffffffffffffffffffffffffffffffffffffffff160217905550808273ffffffffffffffffffffffffffffffffffffffff168473ffffffffffffffffffffffffffffffffffffffff167fddf252ad1be2c89b69c2b068fc378daa952ba7f163c4a11628f55a4df523b3ef60405160405180910390a4611f49838383612427565b505050565b6001816000016000828254019250508190555050565b611f7e82826040518060200160405280600081525061242c565b5050565b611f8b826123ab565b611fca576040517f08c379a0000000000000000000000000000000000000000000000000000000008152600401611fc190614265565b60405180910390fd5b80600a60008481526020019081526020016000209081611fea9190613f8b565b505050565b8173ffffffffffffffffffffffffffffffffffffffff168373ffffffffffffffffffffffffffffffffffffffff160361205d576040517f08c379a0000000000000000000000000000000000000000000000000000000008152600401612054906142d1565b60405180910390fd5b80600560008573ffffffffffffffffffffffffffffffffffffffff1673ffffffffffffffffffffffffffffffffffffffff16815260200190815260200160002060008473ffffffffffffffffffffffffffffffffffffffff1673ffffffffffffffffffffffffffffffffffffffff16815260200190815260200160002060006101000a81548160ff0219169083151502179055508173ffffffffffffffffffffffffffffffffffffffff168373ffffffffffffffffffffffffffffffffffffffff167f17307eab39ab6107e8899845ad3d59bd9653f200f220920489ca2b5937696c318360405161214e9190612f24565b60405180910390a3505050565b612166848484611ce8565b61217284848484612487565b6121b1576040517f08c379a00000000000000000000000000000000000000000000000000000000081526004016121a890614363565b60405180910390fd5b50505050565b60606121c282611b39565b6000600a600084815260200190815260200160002080546121e290613696565b80601f016020809104026020016040519081016040528092919081815260200182805461220e90613696565b801561225b5780601f106122305761010080835404028352916020019161225b565b820191906000526020600020905b81548152906001019060200180831161223e57829003601f168201915b50505050509050600061226c61260e565b905060008151036122815781925050506122c4565b6000825111156122b657808260405160200161229e9291906143bf565b604051602081830303815290604052925050506122c4565b6122bf84612625565b925050505b919050565b60007f80ac58cd000000000000000000000000000000000000000000000000000000007bffffffffffffffffffffffffffffffffffffffffffffffffffffffff1916827bffffffffffffffffffffffffffffffffffffffffffffffffffffffff1916148061239457507f5b5e139f000000000000000000000000000000000000000000000000000000007bffffffffffffffffffffffffffffffffffffffffffffffffffffffff1916827bffffffffffffffffffffffffffffffffffffffffffffffffffffffff1916145b806123a457506123a38261268d565b5b9050919050565b60008073ffffffffffffffffffffffffffffffffffffffff166002600084815260200190815260200160002060009054906101000a900473ffffffffffffffffffffffffffffffffffffffff1673ffffffffffffffffffffffffffffffffffffffff1614159050919050565b6124228383836126f7565b505050565b505050565b6124368383612809565b6124436000848484612487565b612482576040517f08c379a000000000000000000000000000000000000000000000000000000000815260040161247990614363565b60405180910390fd5b505050565b60006124a88473ffffffffffffffffffffffffffffffffffffffff166129e2565b15612601578373ffffffffffffffffffffffffffffffffffffffff1663150b7a026124d1611b84565b8786866040518563ffffffff1660e01b81526004016124f39493929190614438565b6020604051808303816000875af192505050801561252f57506040513d601f19601f8201168201806040525081019061252c9190614499565b60015b6125b1573d806000811461255f576040519150601f19603f3d011682016040523d82523d6000602084013e612564565b606091505b5060008151036125a9576040517f08c379a00000000000000000000000000000000000000000000000000000000081526004016125a090614363565b60405180910390fd5b805181602001fd5b63150b7a0260e01b7bffffffffffffffffffffffffffffffffffffffffffffffffffffffff1916817bffffffffffffffffffffffffffffffffffffffffffffffffffffffff191614915050612606565b600190505b949350505050565b606060405180602001604052806000815250905090565b606061263082611b39565b600061263a61260e565b9050600081511161265a5760405180602001604052806000815250612685565b8061266484612a05565b6040516020016126759291906143bf565b6040516020818303038152906040525b915050919050565b60007f01ffc9a7000000000000000000000000000000000000000000000000000000007bffffffffffffffffffffffffffffffffffffffffffffffffffffffff1916827bffffffffffffffffffffffffffffffffffffffffffffffffffffffff1916149050919050565b612702838383612b65565b600073ffffffffffffffffffffffffffffffffffffffff168373ffffffffffffffffffffffffffffffffffffffff16036127445761273f81612b6a565b612783565b8173ffffffffffffffffffffffffffffffffffffffff168373ffffffffffffffffffffffffffffffffffffffff1614612782576127818382612bb3565b5b5b600073ffffffffffffffffffffffffffffffffffffffff168273ffffffffffffffffffffffffffffffffffffffff16036127c5576127c081612d20565b612804565b8273ffffffffffffffffffffffffffffffffffffffff168273ffffffffffffffffffffffffffffffffffffffff1614612803576128028282612df1565b5b5b505050565b600073ffffffffffffffffffffffffffffffffffffffff168273ffffffffffffffffffffffffffffffffffffffff1603612878576040517f08c379a000000000000000000000000000000000000000000000000000000000815260040161286f90614512565b60405180910390fd5b612881816123ab565b156128c1576040517f08c379a00000000000000000000000000000000000000000000000000000000081526004016128b89061457e565b60405180910390fd5b6128cd60008383612417565b6001600360008473ffffffffffffffffffffffffffffffffffffffff1673ffffffffffffffffffffffffffffffffffffffff168152602001908152602001600020600082825461291d9190613b80565b92505081905550816002600083815260200190815260200160002060006101000a81548173ffffffffffffffffffffffffffffffffffffffff021916908373ffffffffffffffffffffffffffffffffffffffff160217905550808273ffffffffffffffffffffffffffffffffffffffff16600073ffffffffffffffffffffffffffffffffffffffff167fddf252ad1be2c89b69c2b068fc378daa952ba7f163c4a11628f55a4df523b3ef60405160405180910390a46129de60008383612427565b5050565b6000808273ffffffffffffffffffffffffffffffffffffffff163b119050919050565b606060008203612a4c576040518060400160405280600181526020017f30000000000000000000000000000000000000000000000000000000000000008152509050612b60565b600082905060005b60008214612a7e578080612a679061459e565b915050600a82612a779190614615565b9150612a54565b60008167ffffffffffffffff811115612a9a57612a99613355565b5b6040519080825280601f01601f191660200182016040528015612acc5781602001600182028036833780820191505090505b5090505b60008514612b5957600182612ae591906141bf565b9150600a85612af49190614646565b6030612b009190613b80565b60f81b818381518110612b1657612b15613c46565b5b60200101907effffffffffffffffffffffffffffffffffffffffffffffffffffffffffffff1916908160001a905350600a85612b529190614615565b9450612ad0565b8093505050505b919050565b505050565b6008805490506009600083815260200190815260200160002081905550600881908060018154018082558091505060019003906000526020600020016000909190919091505550565b60006001612bc084610fba565b612bca91906141bf565b9050600060076000848152602001908152602001600020549050818114612caf576000600660008673ffffffffffffffffffffffffffffffffffffffff1673ffffffffffffffffffffffffffffffffffffffff168152602001908152602001600020600084815260200190815260200160002054905080600660008773ffffffffffffffffffffffffffffffffffffffff1673ffffffffffffffffffffffffffffffffffffffff168152602001908152602001600020600084815260200190815260200160002081905550816007600083815260200190815260200160002081905550505b6007600084815260200190815260200160002060009055600660008573ffffffffffffffffffffffffffffffffffffffff1673ffffffffffffffffffffffffffffffffffffffff16815260200190815260200160002060008381526020019081526020016000206000905550505050565b60006001600880549050612d3491906141bf565b9050600060096000848152602001908152602001600020549050600060088381548110612d6457612d63613c46565b5b906000526020600020015490508060088381548110612d8657612d85613c46565b5b906000526020600020018190555081600960008381526020019081526020016000208190555060096000858152602001908152602001600020600090556008805480612dd557612dd4614677565b5b6001900381819060005260206000200160009055905550505050565b6000612dfc83610fba565b905081600660008573ffffffffffffffffffffffffffffffffffffffff1673ffffffffffffffffffffffffffffffffffffffff168152602001908152602001600020600083815260200190815260200160002081905550806007600084815260200190815260200160002081905550505050565b6000604051905090565b600080fd5b600080fd5b60007fffffffff0000000000000000000000000000000000000000000000000000000082169050919050565b612eb981612e84565b8114612ec457600080fd5b50565b600081359050612ed681612eb0565b92915050565b600060208284031215612ef257612ef1612e7a565b5b6000612f0084828501612ec7565b91505092915050565b60008115159050919050565b612f1e81612f09565b82525050565b6000602082019050612f396000830184612f15565b92915050565b600081519050919050565b600082825260208201905092915050565b60005b83811015612f79578082015181840152602081019050612f5e565b60008484015250505050565b6000601f19601f8301169050919050565b6000612fa182612f3f565b612fab8185612f4a565b9350612fbb818560208601612f5b565b612fc481612f85565b840191505092915050565b60006020820190508181036000830152612fe98184612f96565b905092915050565b6000819050919050565b61300481612ff1565b811461300f57600080fd5b50565b60008135905061302181612ffb565b92915050565b60006020828403121561303d5761303c612e7a565b5b600061304b84828501613012565b91505092915050565b600073ffffffffffffffffffffffffffffffffffffffff82169050919050565b600061307f82613054565b9050919050565b61308f81613074565b82525050565b60006020820190506130aa6000830184613086565b92915050565b6130b981613074565b81146130c457600080fd5b50565b6000813590506130d6816130b0565b92915050565b600080604083850312156130f3576130f2612e7a565b5b6000613101858286016130c7565b925050602061311285828601613012565b9150509250929050565b61312581612ff1565b82525050565b600060808201905081810360008301526131458187612f96565b9050613154602083018661311c565b613161604083018561311c565b61316e606083018461311c565b95945050505050565b6000819050919050565b61318a81613177565b82525050565b60006020820190506131a56000830184613181565b92915050565b60006020820190506131c0600083018461311c565b92915050565b6000806000606084860312156131df576131de612e7a565b5b60006131ed868287016130c7565b93505060206131fe868287016130c7565b925050604061320f86828701613012565b9150509250925092565b61322281613177565b811461322d57600080fd5b50565b60008135905061323f81613219565b92915050565b60006020828403121561325b5761325a612e7a565b5b600061326984828501613230565b91505092915050565b60006020828403121561328857613287612e7a565b5b6000613296848285016130c7565b91505092915050565b6132a881612f09565b81146132b357600080fd5b50565b6000813590506132c58161329f565b92915050565b600080604083850312156132e2576132e1612e7a565b5b60006132f0858286016130c7565b9250506020613301858286016132b6565b9150509250929050565b6000806040838503121561332257613321612e7a565b5b600061333085828601613012565b925050602061334185828601613230565b9150509250929050565b600080fd5b600080fd5b7f4e487b7100000000000000000000000000000000000000000000000000000000600052604160045260246000fd5b61338d82612f85565b810181811067ffffffffffffffff821117156133ac576133ab613355565b5b80604052505050565b60006133bf612e70565b90506133cb8282613384565b919050565b600067ffffffffffffffff8211156133eb576133ea613355565b5b6133f482612f85565b9050602081019050919050565b82818337600083830152505050565b600061342361341e846133d0565b6133b5565b90508281526020810184848401111561343f5761343e613350565b5b61344a848285613401565b509392505050565b600082601f8301126134675761346661334b565b5b8135613477848260208601613410565b91505092915050565b6000806000806080858703121561349a57613499612e7a565b5b60006134a8878288016130c7565b94505060206134b9878288016130c7565b93505060406134ca87828801613012565b925050606085013567ffffffffffffffff8111156134eb576134ea612e7f565b5b6134f787828801613452565b91505092959194509250565b600067ffffffffffffffff82111561351e5761351d613355565b5b61352782612f85565b9050602081019050919050565b600061354761354284613503565b6133b5565b90508281526020810184848401111561356357613562613350565b5b61356e848285613401565b509392505050565b600082601f83011261358b5761358a61334b565b5b813561359b848260208601613534565b91505092915050565b600080600080608085870312156135be576135bd612e7a565b5b60006135cc87828801613012565b94505060206135dd87828801613012565b93505060406135ee87828801613230565b925050606085013567ffffffffffffffff81111561360f5761360e612e7f565b5b61361b87828801613576565b91505092959194509250565b6000806040838503121561363e5761363d612e7a565b5b600061364c858286016130c7565b925050602061365d858286016130c7565b9150509250929050565b7f4e487b7100000000000000000000000000000000000000000000000000000000600052602260045260246000fd5b600060028204905060018216806136ae57607f821691505b6020821081036136c1576136c0613667565b5b50919050565b7f4552433732313a20617070726f76616c20746f2063757272656e74206f776e6560008201527f7200000000000000000000000000000000000000000000000000000000000000602082015250565b6000613723602183612f4a565b915061372e826136c7565b604082019050919050565b6000602082019050818103600083015261375281613716565b9050919050565b7f4552433732313a20617070726f76652063616c6c6572206973206e6f7420746f60008201527f6b656e206f776e6572206e6f7220617070726f76656420666f7220616c6c0000602082015250565b60006137b5603e83612f4a565b91506137c082613759565b604082019050919050565b600060208201905081810360008301526137e4816137a8565b9050919050565b7f496e76616c696420696e64657800000000000000000000000000000000000000600082015250565b6000613821600d83612f4a565b915061382c826137eb565b602082019050919050565b6000602082019050818103600083015261385081613814565b9050919050565b7f4552433732313a2063616c6c6572206973206e6f7420746f6b656e206f776e6560008201527f72206e6f7220617070726f766564000000000000000000000000000000000000602082015250565b60006138b3602e83612f4a565b91506138be82613857565b604082019050919050565b600060208201905081810360008301526138e2816138a6565b9050919050565b7f455243373231456e756d657261626c653a206f776e657220696e646578206f7560008201527f74206f6620626f756e6473000000000000000000000000000000000000000000602082015250565b6000613945602b83612f4a565b9150613950826138e9565b604082019050919050565b6000602082019050818103600083015261397481613938565b9050919050565b7f496e76616c696420746f6b656e20636f64650000000000000000000000000000600082015250565b60006139b1601283612f4a565b91506139bc8261397b565b602082019050919050565b600060208201905081810360008301526139e0816139a4565b9050919050565b7f436f646520686173206578706972656400000000000000000000000000000000600082015250565b6000613a1d601083612f4a565b9150613a28826139e7565b602082019050919050565b60006020820190508181036000830152613a4c81613a10565b9050919050565b7f4d6178696d756d206d696e742072656163686564000000000000000000000000600082015250565b6000613a89601483612f4a565b9150613a9482613a53565b602082019050919050565b60006020820190508181036000830152613ab881613a7c565b9050919050565b7f596f75206861766520616c7265616479206d696e746564206120746f6b656e2060008201527f66726f6d207468697320636f6c6c656374696f6e000000000000000000000000602082015250565b6000613b1b603483612f4a565b9150613b2682613abf565b604082019050919050565b60006020820190508181036000830152613b4a81613b0e565b9050919050565b7f4e487b7100000000000000000000000000000000000000000000000000000000600052601160045260246000fd5b6000613b8b82612ff1565b9150613b9683612ff1565b9250828201905080821115613bae57613bad613b51565b5b92915050565b7f455243373231456e756d657261626c653a20676c6f62616c20696e646578206f60008201527f7574206f6620626f756e64730000000000000000000000000000000000000000602082015250565b6000613c10602c83612f4a565b9150613c1b82613bb4565b604082019050919050565b60006020820190508181036000830152613c3f81613c03565b9050919050565b7f4e487b7100000000000000000000000000000000000000000000000000000000600052603260045260246000fd5b7f4552433732313a20696e76616c696420746f6b656e2049440000000000000000600082015250565b6000613cab601883612f4a565b9150613cb682613c75565b602082019050919050565b60006020820190508181036000830152613cda81613c9e565b9050919050565b7f4552433732313a2061646472657373207a65726f206973206e6f74206120766160008201527f6c6964206f776e65720000000000000000000000000000000000000000000000602082015250565b6000613d3d602983612f4a565b9150613d4882613ce1565b604082019050919050565b60006020820190508181036000830152613d6c81613d30565b9050919050565b7f436f6c6c656374696f6e20646f6573206e6f7420657869737400000000000000600082015250565b6000613da9601983612f4a565b9150613db482613d73565b602082019050919050565b60006020820190508181036000830152613dd881613d9c565b9050919050565b60008190508160005260206000209050919050565b60006020601f8301049050919050565b600082821b905092915050565b600060088302613e417fffffffffffffffffffffffffffffffffffffffffffffffffffffffffffffffff82613e04565b613e4b8683613e04565b95508019841693508086168417925050509392505050565b6000819050919050565b6000613e88613e83613e7e84612ff1565b613e63565b612ff1565b9050919050565b6000819050919050565b613ea283613e6d565b613eb6613eae82613e8f565b848454613e11565b825550505050565b600090565b613ecb613ebe565b613ed6818484613e99565b505050565b5b81811015613efa57613eef600082613ec3565b600181019050613edc565b5050565b601f821115613f3f57613f1081613ddf565b613f1984613df4565b81016020851015613f28578190505b613f3c613f3485613df4565b830182613edb565b50505b505050565b600082821c905092915050565b6000613f6260001984600802613f44565b1980831691505092915050565b6000613f7b8383613f51565b9150826002028217905092915050565b613f9482612f3f565b67ffffffffffffffff811115613fad57613fac613355565b5b613fb78254613696565b613fc2828285613efe565b600060209050601f831160018114613ff55760008415613fe3578287015190505b613fed8582613f6f565b865550614055565b601f19841661400386613ddf565b60005b8281101561402b57848901518255600182019150602085019450602081019050614006565b868310156140485784890151614044601f891682613f51565b8355505b6001600288020188555050505b505050505050565b6000606082019050614072600083018661311c565b61407f602083018561311c565b81810360408301526140918184612f96565b9050949350505050565b7f4552433732313a207472616e736665722066726f6d20696e636f72726563742060008201527f6f776e6572000000000000000000000000000000000000000000000000000000602082015250565b60006140f7602583612f4a565b91506141028261409b565b604082019050919050565b60006020820190508181036000830152614126816140ea565b9050919050565b7f4552433732313a207472616e7366657220746f20746865207a65726f2061646460008201527f7265737300000000000000000000000000000000000000000000000000000000602082015250565b6000614189602483612f4a565b91506141948261412d565b604082019050919050565b600060208201905081810360008301526141b88161417c565b9050919050565b60006141ca82612ff1565b91506141d583612ff1565b92508282039050818111156141ed576141ec613b51565b5b92915050565b7f45524337323155524953746f726167653a2055524920736574206f66206e6f6e60008201527f6578697374656e7420746f6b656e000000000000000000000000000000000000602082015250565b600061424f602e83612f4a565b915061425a826141f3565b604082019050919050565b6000602082019050818103600083015261427e81614242565b9050919050565b7f4552433732313a20617070726f766520746f2063616c6c657200000000000000600082015250565b60006142bb601983612f4a565b91506142c682614285565b602082019050919050565b600060208201905081810360008301526142ea816142ae565b9050919050565b7f4552433732313a207472616e7366657220746f206e6f6e20455243373231526560008201527f63656976657220696d706c656d656e7465720000000000000000000000000000602082015250565b600061434d603283612f4a565b9150614358826142f1565b604082019050919050565b6000602082019050818103600083015261437c81614340565b9050919050565b600081905092915050565b600061439982612f3f565b6143a38185614383565b93506143b3818560208601612f5b565b80840191505092915050565b60006143cb828561438e565b91506143d7828461438e565b91508190509392505050565b600081519050919050565b600082825260208201905092915050565b600061440a826143e3565b61441481856143ee565b9350614424818560208601612f5b565b61442d81612f85565b840191505092915050565b600060808201905061444d6000830187613086565b61445a6020830186613086565b614467604083018561311c565b818103606083015261447981846143ff565b905095945050505050565b60008151905061449381612eb0565b92915050565b6000602082840312156144af576144ae612e7a565b5b60006144bd84828501614484565b91505092915050565b7f4552433732313a206d696e7420746f20746865207a65726f2061646472657373600082015250565b60006144fc602083612f4a565b9150614507826144c6565b602082019050919050565b6000602082019050818103600083015261452b816144ef565b9050919050565b7f4552433732313a20746f6b656e20616c7265616479206d696e74656400000000600082015250565b6000614568601c83612f4a565b915061457382614532565b602082019050919050565b600060208201905081810360008301526145978161455b565b9050919050565b60006145a982612ff1565b91507fffffffffffffffffffffffffffffffffffffffffffffffffffffffffffffffff82036145db576145da613b51565b5b600182019050919050565b7f4e487b7100000000000000000000000000000000000000000000000000000000600052601260045260246000fd5b600061462082612ff1565b915061462b83612ff1565b92508261463b5761463a6145e6565b5b828204905092915050565b600061465182612ff1565b915061465c83612ff1565b92508261466c5761466b6145e6565b5b828206905092915050565b7f4e487b7100000000000000000000000000000000000000000000000000000000600052603160045260246000fdfea2646970667358221220ae5dadd2fe931579b6159a9feeed6ed20eeda4ac7a0422328931c0d7ed9d98e564736f6c63430008110033",
  "linkReferences": {},
  "deployedLinkReferences": {}
}